:100000000C9434000C943E000C943E000C943E0082
:100010000C943E000C943E000C943E000C943E0068
:100020000C943E000C943E000C943E000C943E0058
:100030000C943E000C943E000C943E000C943E0048
:100040000C943E000C943E000C943E000C943E0038
:100050000C943E000C943E000C943E000C943E0028
:100060000C943E000C943E0011241FBECFEFD8E04C
:10007000DEBFCDBF0E9453000C9473000C940000AF
:1000800040E050E0BA0109C0A99BFECF85B3826071
:1000900085BB4F5F5F4F6F4F7F4F4E3451056105FA
:1000A000710594F3089516BC88EC87BD84B58E7FE6
:1000B00084BD84B58D7F84BD85B5816085BD85B5E2
:1000C000846085BD85B58D7F85BD84B1806284B92E
:1000D00085B1806285B90E94400085B18F7D85B968
:0A00E0000E944000F5CFF894FFCF16
:00000001FF
