S019000054696D6572305F4E6F726D616C4D6F64652E737265638D
S11300000C9434000C943E000C943E000C943E007E
S11300100C943E000C943E000C943E000C943E0064
S11300200C943E000C943E000C943E000C943E0054
S11300300C943E000C943E000C943E000C943E0044
S11300400C943E000C943E000C943E000C943E0034
S11300500C943E000C943E000C943E000C943E0024
S11300600C943E000C943E0011241FBECFEFD8E048
S1130070DEBFCDBF0E9454000C9472000C940000AB
S113008040E050E0BA0109C0A89BFECF85B381606F
S113009085BB4F5F5F4F6F4F7F4F443284EF5807EC
S11300A0610571058CF3089516BC85B58E7F85BDF9
S11300B085B58D7F85BD85B5816085BD85B58D7F11
S11300C085BD85B58B7F85BD84B1806284B985B1DA
S11300D0806285B90E94400085B18F7D85B90E94F8
S10B00E04000F5CFF894FFCFB6
S9030000FC
