S013000050574D5F4D6F64756C61722E73726563EA
S11300000C9434000C943E000C943E000C943E007E
S11300100C943E000C943E000C943E000C943E0064
S11300200C943E000C943E000C943E000C943E0054
S11300300C943E000C943E000C943E000C943E0044
S11300400C943E000C943E000C943E000C943E0034
S11300500C943E000C943E000C943E000C943E0024
S11300600C943E000C943E0011241FBECFEFD8E048
S1130070DEBFCDBF0E9440000C948D000C940000A4
S11300800E94460088E20E945A00FFCF8AB1806431
S11300908AB984B5836084BD84B5806884BD84B521
S11300A08F7B84BD85B5836085BD85B58B7F85BD1C
S11300B017BC0895853608F084E6982F80E064E63E
S11300C070E00E94650067BD089597FB072E16F443
S11300D0009407D077FD09D00E94790007FC05D071
S11300E03EF4909581959F4F0895709561957F4F4B
S11300F00895AA1BBB1B51E107C0AA1FBB1FA6176B
S1130100B70710F0A61BB70B881F991F5A95A9F7BC
S111011080959095BC01CD010895F894FFCF21
S9030000FC
