S02100006D6F746F745F726F746174655F7769746866756E6374696F6E2E7372656361
S11300000C9434000C943E000C943E000C943E007E
S11300100C943E000C943E000C943E000C943E0064
S11300200C943E000C943E000C943E000C943E0054
S11300300C943E000C943E000C943E000C943E0044
S11300400C943E000C943E000C943E000C943E0034
S11300500C943E000C943E000C943E000C943E0024
S11300600C943E000C943E0011241FBECFEFD8E048
S1130070DEBFCDBF0E9455000C9488000C94000094
S113008085B1806285B985B18F7E85B9089585B1C2
S1130090806185B985B18F7D85B9089585B18F7EDD
S11300A085B985B18F7D85B9089584B1806284B99D
S11300B084B1806184B90E9440002FEF87EA91E601
S11300C0215080409040E1F700C000000E944E00A3
S11300D02FEF87EA91E6215080409040E1F700C07D
S11300E000000E9447002FEF87EA91E621508040EC
S11300F09040E1F700C000000E944E002FEF87EA15
S113010091E6215080409040E1F700C00000D3CF39
S1070110F894FFCF8D
S9030000FC
