S016000054696D6572305F4D6F64756C61722E73726563AA
S11300000C9434000C943E000C943E000C943E007E
S11300100C943E000C943E000C943E000C943E0064
S11300200C943E000C943E000C943E000C943E0054
S11300300C943E000C943E000C943E000C943E0044
S11300400C943E000C943E000C943E000C943E0034
S11300500C943E000C943E000C943E000C943E0024
S11300600C943E000C943E0011241FBECFEFD8E048
S1130070DEBFCDBF0E9440000C9478000C940000B9
S113008084B1806284B90E9455000E94650084B1E5
S1130090806284B985B1806285B90E94650085B1AA
S11300A08F7D85B90E946500F5CF84B58E7F84BDB0
S11300B084B58D7F84BD85B5816085BD85B58D7F13
S11300C085BD85B58B7F85BD089580E090E0DC011A
S11300D008C016BCA89BFECF25B325BB0196A11D65
S11300E0B11D843224EF9207A105B10594F308955C
S10700F0F894FFCFAE
S9030000FC
