S01A00006C65645F696E7465726E616C70756C6C75702E7372656377
S11300000C9434000C943E000C943E000C943E007E
S11300100C943E000C943E000C943E000C943E0064
S11300200C943E000C943E000C943E000C943E0054
S11300300C943E000C943E000C943E000C943E0044
S11300400C943E000C943E000C943E000C943E0034
S11300500C943E000C943E000C943E000C943E0024
S11300600C943E000C943E0011241FBECFEFD8E048
S1130070DEBFCDBF0E9440000C9453000C940000DE
S113008084B1806284B98AB18F7E8AB98BB1806170
S11300908BB94C9B04C085B18F7D85B9FACF85B1EE
S10D00A0806285B9F6CFF894FFCF13
S9030000FC
